{
  "contractName": "CourseFeedback",
  "abi": [
    {
      "constant": true,
      "inputs": [],
      "name": "studentsCount",
      "outputs": [
        {
          "name": "",
          "type": "uint256"
        }
      ],
      "payable": false,
      "stateMutability": "view",
      "type": "function"
    },
    {
      "constant": true,
      "inputs": [
        {
          "name": "",
          "type": "address"
        }
      ],
      "name": "voted",
      "outputs": [
        {
          "name": "",
          "type": "bool"
        }
      ],
      "payable": false,
      "stateMutability": "view",
      "type": "function"
    },
    {
      "constant": true,
      "inputs": [
        {
          "name": "",
          "type": "address"
        }
      ],
      "name": "feedbackRecord",
      "outputs": [
        {
          "name": "q1",
          "type": "uint256"
        },
        {
          "name": "q2",
          "type": "uint256"
        }
      ],
      "payable": false,
      "stateMutability": "view",
      "type": "function"
    },
    {
      "inputs": [],
      "payable": false,
      "stateMutability": "nonpayable",
      "type": "constructor"
    },
    {
      "constant": false,
      "inputs": [
        {
          "name": "numberOfStudents",
          "type": "uint256"
        }
      ],
      "name": "setNumberOfStudents",
      "outputs": [],
      "payable": false,
      "stateMutability": "nonpayable",
      "type": "function"
    },
    {
      "constant": false,
      "inputs": [
        {
          "name": "_studentid",
          "type": "uint256"
        },
        {
          "name": "_studentname",
          "type": "string"
        },
        {
          "name": "pk",
          "type": "address"
        }
      ],
      "name": "addStudent",
      "outputs": [],
      "payable": false,
      "stateMutability": "nonpayable",
      "type": "function"
    },
    {
      "constant": false,
      "inputs": [
        {
          "name": "a",
          "type": "uint256"
        },
        {
          "name": "b",
          "type": "uint256"
        }
      ],
      "name": "giveFeedback",
      "outputs": [],
      "payable": false,
      "stateMutability": "nonpayable",
      "type": "function"
    },
    {
      "constant": true,
      "inputs": [],
      "name": "checkFeedback",
      "outputs": [
        {
          "name": "",
          "type": "uint256"
        },
        {
          "name": "",
          "type": "uint256"
        }
      ],
      "payable": false,
      "stateMutability": "view",
      "type": "function"
    },
    {
      "constant": false,
      "inputs": [],
      "name": "getNoOfStudVoted",
      "outputs": [
        {
          "name": "",
          "type": "uint256"
        }
      ],
      "payable": false,
      "stateMutability": "nonpayable",
      "type": "function"
    },
    {
      "constant": false,
      "inputs": [],
      "name": "getTotalStud",
      "outputs": [
        {
          "name": "",
          "type": "uint256"
        }
      ],
      "payable": false,
      "stateMutability": "nonpayable",
      "type": "function"
    }
  ],
  "bytecode": "0x6080604052600060015534801561001557600080fd5b5033600260006101000a81548173ffffffffffffffffffffffffffffffffffffffff021916908373ffffffffffffffffffffffffffffffffffffffff160217905550610070600061013d640100000000026401000000009004565b6100d460016040805190810160405280600781526020017f5368756268616d0000000000000000000000000000000000000000000000000081525073df824dfb10e5e9089dcaa89c62111f75814f9c4a6101a3640100000000026401000000009004565b61013860026040805190810160405280600681526020017f41746861727600000000000000000000000000000000000000000000000000008152507326f5051531dc81f0108389e5b32755366eff1c6f6101a3640100000000026401000000009004565b610362565b600260009054906101000a900473ffffffffffffffffffffffffffffffffffffffff1673ffffffffffffffffffffffffffffffffffffffff163373ffffffffffffffffffffffffffffffffffffffff1614151561019957600080fd5b8060008190555050565b600260009054906101000a900473ffffffffffffffffffffffffffffffffffffffff1673ffffffffffffffffffffffffffffffffffffffff163373ffffffffffffffffffffffffffffffffffffffff161415156101ff57600080fd5b60606040519081016040528084815260200183815260200160011515815250600360008373ffffffffffffffffffffffffffffffffffffffff1673ffffffffffffffffffffffffffffffffffffffff1681526020019081526020016000206000820151816000015560208201518160010190805190602001906102839291906102bd565b5060408201518160020160006101000a81548160ff0219169083151502179055509050506000808154809291906001019190505550505050565b828054600181600116156101000203166002900490600052602060002090601f016020900481019282601f106102fe57805160ff191683800117855561032c565b8280016001018555821561032c579182015b8281111561032b578251825591602001919060010190610310565b5b509050610339919061033d565b5090565b61035f91905b8082111561035b576000816000905550600101610343565b5090565b90565b6108c1806103716000396000f3fe608060405260043610610099576000357c0100000000000000000000000000000000000000000000000000000000900463ffffffff16806324297d431461009e57806329b28e1f146100c95780634bf918ea14610104578063588579f91461012f57806368433a3a14610161578063705f1e851461018c578063aec2ccae146101d1578063e7d0f6ee1461023a578063ff61b5e31461032c575b600080fd5b3480156100aa57600080fd5b506100b3610398565b6040518082815260200191505060405180910390f35b3480156100d557600080fd5b50610102600480360360208110156100ec57600080fd5b81019080803590602001909291905050506103a2565b005b34801561011057600080fd5b50610119610408565b6040518082815260200191505060405180910390f35b34801561013b57600080fd5b50610144610411565b604051808381526020018281526020019250505060405180910390f35b34801561016d57600080fd5b50610176610501565b6040518082815260200191505060405180910390f35b34801561019857600080fd5b506101cf600480360360408110156101af57600080fd5b810190808035906020019092919080359060200190929190505050610507565b005b3480156101dd57600080fd5b50610220600480360360208110156101f457600080fd5b81019080803573ffffffffffffffffffffffffffffffffffffffff169060200190929190505050610692565b604051808215151515815260200191505060405180910390f35b34801561024657600080fd5b5061032a6004803603606081101561025d57600080fd5b81019080803590602001909291908035906020019064010000000081111561028457600080fd5b82018360208201111561029657600080fd5b803590602001918460018302840111640100000000831117156102b857600080fd5b91908080601f016020809104026020016040519081016040528093929190818152602001838380828437600081840152601f19601f820116905080830192505050505050509192919290803573ffffffffffffffffffffffffffffffffffffffff1690602001909291905050506106b2565b005b34801561033857600080fd5b5061037b6004803603602081101561034f57600080fd5b81019080803573ffffffffffffffffffffffffffffffffffffffff1690602001909291905050506107cc565b604051808381526020018281526020019250505060405180910390f35b6000600154905090565b600260009054906101000a900473ffffffffffffffffffffffffffffffffffffffff1673ffffffffffffffffffffffffffffffffffffffff163373ffffffffffffffffffffffffffffffffffffffff161415156103fe57600080fd5b8060008190555050565b60008054905090565b60008060011515600460003373ffffffffffffffffffffffffffffffffffffffff1673ffffffffffffffffffffffffffffffffffffffff16815260200190815260200160002060009054906101000a900460ff16151514151561047357600080fd5b600560003373ffffffffffffffffffffffffffffffffffffffff1673ffffffffffffffffffffffffffffffffffffffff16815260200190815260200160002060000154600560003373ffffffffffffffffffffffffffffffffffffffff1673ffffffffffffffffffffffffffffffffffffffff16815260200190815260200160002060010154915091509091565b60005481565b6001600360003373ffffffffffffffffffffffffffffffffffffffff1673ffffffffffffffffffffffffffffffffffffffff16815260200190815260200160002060020160006101000a81548160ff0219169083151502179055151561056c57600080fd5b60001515600460003373ffffffffffffffffffffffffffffffffffffffff1673ffffffffffffffffffffffffffffffffffffffff16815260200190815260200160002060009054906101000a900460ff1615151415156105cb57600080fd5b604080519081016040528083815260200182815250600560003373ffffffffffffffffffffffffffffffffffffffff1673ffffffffffffffffffffffffffffffffffffffff16815260200190815260200160002060008201518160000155602082015181600101559050506001600460003373ffffffffffffffffffffffffffffffffffffffff1673ffffffffffffffffffffffffffffffffffffffff16815260200190815260200160002060006101000a81548160ff0219169083151502179055505050565b60046020528060005260406000206000915054906101000a900460ff1681565b600260009054906101000a900473ffffffffffffffffffffffffffffffffffffffff1673ffffffffffffffffffffffffffffffffffffffff163373ffffffffffffffffffffffffffffffffffffffff1614151561070e57600080fd5b60606040519081016040528084815260200183815260200160011515815250600360008373ffffffffffffffffffffffffffffffffffffffff1673ffffffffffffffffffffffffffffffffffffffff1681526020019081526020016000206000820151816000015560208201518160010190805190602001906107929291906107f0565b5060408201518160020160006101000a81548160ff0219169083151502179055509050506000808154809291906001019190505550505050565b60056020528060005260406000206000915090508060000154908060010154905082565b828054600181600116156101000203166002900490600052602060002090601f016020900481019282601f1061083157805160ff191683800117855561085f565b8280016001018555821561085f579182015b8281111561085e578251825591602001919060010190610843565b5b50905061086c9190610870565b5090565b61089291905b8082111561088e576000816000905550600101610876565b5090565b9056fea165627a7a72305820375151f3a6833b35f3551236f476ba95fa9f49f72bb976ab8fc504c599f41a690029",
  "source": "pragma solidity >=0.4.21 <0.6.0;\n\n// This contract will be the backend smart contract for the course-feedback system, to interact with our blockchain\ncontract CourseFeedback{\n\n\n  // Store students Count\n  uint public studentsCount;\n  //Store number of students who have voted till now\n  uint numberOfVotedStudents=0;\n  // Store admin credentials\n  address admin;\n\n  modifier onlyAdmin() {\n    require (msg.sender==admin);\n    _;\n  }\n\n\n  //structure to store candidate's details\n  struct Student{\n    uint studentID;\n    string studentname;\n    bool validStud;\n    //feedback\n  }\n\n  //Store the Feedback received from the form\n  struct Feedback {\n    uint q1;\n    uint q2;\n    //Question variables go here\n  }\n\n\n  //Mappings\n  // mapping of all the students :studentsList\n  mapping (address=>Student) studentsList;\n  // mapping of hashes of pk/password with public key :passDB\n  //mapping ( => ) passDB;\n  //voted\n  mapping (address=>bool) public voted;\n  //mapping to store feedback\n  mapping ( address => Feedback) public feedbackRecord;\n\n\n  //constructor\n  constructor() public {\n    //initialise admin credentials\n    admin=msg.sender;\n    setNumberOfStudents(0);\n    addStudent(1,\"Shubham\",0xDF824dFb10e5E9089DcaA89c62111F75814F9C4a);\n    addStudent(2,\"Atharv\",0x26f5051531dC81F0108389e5b32755366Eff1C6f);\n\n  }\n\n\n  function setNumberOfStudents (uint numberOfStudents) onlyAdmin public{\n    //sets the number of students allowed to give reviews\n    studentsCount=numberOfStudents;\n  }\n\n\n  //add students\n  function addStudent (uint _studentid,string memory _studentname, address pk) onlyAdmin public {\n    //making a new student struct\n    studentsList[pk]=Student(_studentid,_studentname,true);\n    //add to studentsList\n\n    //update passDB\n    //increase numberOfVotedStudents\n    studentsCount++;\n  }\n\n\n\n  //give feedback\n  function giveFeedback (uint a, uint b) public {\n      // requires that they are in studentsList\n      require(studentsList[msg.sender].validStud=true);\n      // requires they have pk/password\n      // requires that they haven't given feedback before\n      require(voted[msg.sender]==false);\n\n      //add to feedbackRecord\n      feedbackRecord[msg.sender] = Feedback(a,b);\n      // update voted\n      voted[msg.sender]=true;\n  }\n\n\n  // check feedback\n  function checkFeedback() public view returns (uint, uint){\n      //chekc if the student voted\n      require(voted[msg.sender]== true);\n      //check feedbackRecord\n      return (feedbackRecord[msg.sender].q1,feedbackRecord[msg.sender].q2);\n\n  }\n\n  function getNoOfStudVoted() public returns (uint)\n  {\n    return numberOfVotedStudents;\n  }\n\n  function getTotalStud() public returns (uint)\n  {\n    return studentsCount;\n  }\n\n\n}",
  "sourcePath": "/home/atharv/GitHub_Projects/CourseFeedbackSystem/contracts/CourseFeedbackSystem.sol",
  "compiler": {
    "name": "solc",
    "version": "0.5.0+commit.1d4f565a.Emscripten.clang"
  },
  "schemaVersion": "3.0.2",
  "updatedAt": "2019-02-17T09:54:57.686Z",
  "devdoc": {
    "methods": {}
  },
  "userdoc": {
    "methods": {}
  }
}